:1000000000800020BD0100006908000069080000B0
:100010006908000069080000690800003508000050
:1000200035080000350800003508000069080000A8
:100030006908000035080000690800002508000074
:1000400069080000690800006908000069080000EC
:1000500069080000690800006908000069080000DC
:1000600069080000690800006908000069080000CC
:1000700069080000690800006908000069080000BC
:1000800069080000690800006908000069080000AC
:10009000690800006908000069080000690800009C
:1000A000690800006908000069080000690800008C
:1000B000690800006908000069080000690800007C
:1000C000690800006908000069080000690800006C
:1000D000690800006908000069080000690800005C
:1000E000690800006908000069080000690800004C
:1000F000690800006908000069080000690800003C
:10010000690800006908000069080000690800002B
:10011000690800006908000069080000690800001B
:10012000690800006908000069080000690800000B
:1001300069080000690800006908000069080000FB
:1001400069080000690800006908000069080000EB
:1001500069080000690800006908000069080000DB
:1001600069080000851400006908000069080000A3
:1001700069080000690800006908000069080000BB
:1001800069080000690800006908000069080000AB
:10019000690800006908000069080000410A0000C1
:1001A000910A0000190B0000D50B0000590C00004B
:1001B00069080000690800006908000008B5484B9C
:1001C0004CF220521A804DF628121A8000BF00BF50
:1001D00000F04DFB434B4FF010621A60424A9A60A8
:1001E000424ADA60A3F53043203B1A6812F4807269
:1001F00004D13F490A604FF4A8521A603D4B1A7867
:10020000110703D51A7842F008021A7000233A4AFF
:100210003A499818884204D23949595899500433B8
:10022000F5E7384B384A93424FF0000202D243F8C8
:10023000042BF7E7354B1A60A3F60813802203F866
:10024000012B334A9342F9D1324B0A221A70A3F69A
:10025000FF7324221A70A02203F8012C2E4B1A7867
:100260009207FBD51A78D006FCD41A7802F00C025B
:10027000082AFAD1294B03221A7040225A70264BC1
:100280001A789106FBD51A785206FCD5244B254ADC
:100290001A60254B20221A701F4B1B7803F00C03A9
:1002A0000C2BF9D1214B02221A60214A43F8442C2D
:1002B000204B4BF67F321A60072243F8042C62B6BB
:1002C00000F04AFF0A4B1B68DB0702D51A4800F012
:1002D000E1FC01F05DFF00F0D1FA00F085FAFEE7E5
:1002E0000E20054030800440823F04000100002BB6
:1002F00014D0034002D007400084FF1F248DFF1F4D
:10030000346C0000248DFF1F148FFF1F08ED00E0E8
:100310005FE400E00050064006400640044006400E
:10032000448004400000031100400640488004401F
:10033000C010050014E000E000DD6850FFFFFFFF83
:10034000FFFFFFFFFFFFFFFFFFFFFFFFFFFFFFFFBD
:10035000FFFFFFFFFFFFFFFFFFFFFFFFFFFFFFFFAD
:10036000FFFFFFFFFFFFFFFFFFFFFFFFFFFFFFFF9D
:10037000FFFFFFFFFFFFFFFFFFFFFFFFFFFFFFFF8D
:10038000FFFFFFFFFFFFFFFFFFFFFFFFFFFFFFFF7D
:10039000FFFFFFFFFFFFFFFFFFFFFFFFFFFFFFFF6D
:1003A000FFFFFFFFFFFFFFFFFFFFFFFFFFFFFFFF5D
:1003B000FFFFFFFFFFFFFFFFFFFFFFFFFFFFFFFF4D
:1003C000FFFFFFFFFFFFFFFFFFFFFFFFFFFFFFFF3D
:1003D000FFFFFFFFFFFFFFFFFFFFFFFFFFFFFFFF2D
:1003E000FFFFFFFFFFFFFFFFFFFFFFFFFFFFFFFF1D
:1003F000FFFFFFFFFFFFFFFFFFFFFFFFFFFFFFFF0D
:10040000FFFFFFFFFFFFFFFFFFFFFFFFFEFFFFFFFD
:1004100010B5054C237833B9044B13B10448AFF33E
:1004200000800123237010BD248DFF1F00000000F9
:100430002C6C000008B5064B1BB106480649AFF30B
:1004400000800648036813B1054B03B1984708BD07
:10045000000000002C6C0000288DFF1F248DFF1F62
:1004600000000000F0B5304B1B681B06FBD42F4B7F
:100470001B6813F08002F6D172B62D4B1978002953
:1004800050D02C4908684F688E68CD680C69384494
:10049000143130440968284420440844C0F34E0015
:1004A000254940F400400860C86A0F6B4E6B8D6BA5
:1004B000CC6B384440313044096828442044084417
:1004C000C0F34E001D4940F40040086001F10811DE
:1004D000143151F8140C51F8107C51F80C6C51F88F
:1004E000085C51F8044C09683844304428442044DE
:1004F0000844C0F34E00124940F400400860C86A46
:100500000F6B4E6B8D6BCC6B3844403130440968B7
:10051000284420440844C0F34E000A4940F40040F7
:1005200008601A7062B6F0BD24B0034024B00B40DE
:10053000408DFF1F38B003402CB0034030B0034063
:100540002CB00B4030B00B4030B5214B214D224830
:10055000224960221A70E1225A702C78204A03F551
:100560008E23082C03F10C0301D1012402E00A2C94
:1005700003D139240460132005E00C2C0CBF352472
:100580003D240460122008601460164A18605378F5
:1005900015491046154A03B101230B6013606978B1
:1005A000134A144B012901D880210BE0042901D8FA
:1005B000842107E0082901D8852103E0102994BF90
:1005C00086218721116019600123037030BD00BFAF
:1005D000004007400084FF1F08B003400CB00340F8
:1005E00008B00B40408DFF1F20B0034020B00B40EF
:1005F00024B0034024B00B400D4B5A7858B1AAB92F
:10060000012159701B7823B10A4B1A6003F50023AE
:100610001A60FFF799BF4AB158701B78002BF8D0C9
:10062000044B186003F500231860F2E7704700BF21
:10063000408DFF1F24B003400C2810B504D91028AA
:1006400028BF1020102307E00A2804D8092834BF47
:1006500008230A2300E00C23DCB2094A0949201AC6
:1006600090700878834209D013780C7013B1064B50
:1006700000221A60BDE81040FFF766BF10BD00BF42
:10068000408DFF1F0084FF1F24B0034010B5114BA5
:100690001B7804460BB1FFF7E5FE012C0E4A01D88A
:1006A000002302E0042C02D8042313600EE0082C7F
:1006B00003D805231360082308E0102C03D8062371
:1006C0001360102302E0072313602023034A5370B2
:1006D00010BD00BF408DFF1F24B003400084FF1FEA
:1006E0000D2838B50FD9172801D80E380AE0A0F127
:1006F0001A03052B01D8093804E0A0F12203062BC8
:1007000047D81838C0B2244B244C1D5C23780BB159
:10071000FFF7A8FE290616D472B6214B1D600123EF
:10072000E37062B672B61E4B1B681A0604D51D4BE9
:1007300018680023E37021E0E378002BEDD062B667
:1007400001F06CFBEEE772B6174B1A6815F0400F1C
:1007500014BF22F0100242F010021A60134B05F091
:100760003F021A600123237162B672B60F4B1B68F9
:100770001B0607D50E4B18680023237162B6A378B9
:10078000184138BD2379002BDED062B601F046FB5C
:10079000EBE7002038BD00BF04690000408DFF1F5B
:1007A00000B0034010B003400CB00B4000B00B4051
:1007B00010B00B40084B1A6842F480521A60074B85
:1007C0005A78074B0AB1802200E0C0221A70054B0C
:1007D00080F30C00188070472C800440408DFF1F70
:1007E00021C00C4000C00C4070B50D20012100F06C
:1007F00009FB0A4E0A4D202434601E2000F098FCAC
:100800002C601E2000F094FC34604FF4FA7000F06D
:100810008FFC2C601E2000F08BFCEAE784F00F4078
:1008200088F00F40024B1A6801321A60704700BF0F
:10083000D08DFF1F08B50B4C2368580301D500F07D
:1008400021FE2368590501D500F00EF823681A052A
:1008500001D500F009F82368DB04ECD500F004F8BA
:10086000E9E700BF3480044008B5FFF7E3FF024B1F
:1008700010221A80704700BF002005407047034ACD
:100880001368184410601846704700BF0484FF1FA7
:10089000002070474FF0FF3070474FF400534B601B
:1008A00000207047012070474FF0FF307047FEE78F
:1008B000FEE7012070477047EFF313839BB9EFF316
:1008C000108098B9EFF3058323B10F2B04D9084AA0
:1008D000985C01E04FF48070EFF311833BB18342E9
:1008E00038BF184670474FF0FF30704718467047C2
:1008F000F0E300E00023C25C0AB10133FBE71846D5
:10090000704710B50023B0FBF2F402FB1400092875
:1009100094BF30303730C0B2C85420460CB10133D8
:10092000F1E7CA18547022469A4206DA885CCC5C19
:100930008C54C8540132013BF6E7084610BD031E33
:1009400010B50C4603DBBDE81040FFF7DABF2D20E1
:1009500001F8010B5842FFF7D4FF204610BDF0B557
:100960000F4687B016461C463A46334605460849A8
:1009700001A801F019FD284601F0B6FB02460B461E
:10098000204601A901F010FD204607B0F0BD00BFD0
:100990001B690000084B4FF400021A604FF0807290
:1009A0001A604FF000721A604FF080621A604FF0C8
:1009B00000621A60704700BF08E100E0212830B5EE
:1009C00021D8042A1FD8DFE802F00709050B03002D
:1009D0000B2306E00A2304E0082302E00C2300E0D6
:1009E0000923094A02EBC002526872B61468074D27
:1009F00024F47024146044F0807444EA034345F8FE
:100A00002010136062B630BD24690000488DFF1FBE
:100A1000094B03EBC0035A6872B6136823F087735F
:100A200023F4803343F080731360044B002243F8B7
:100A3000202062B6704700BF24690000488DFF1F68
:100A4000114B10B51C681C60E00404D50F4BDA682C
:100A50000AB1DB689847A10404D50C4B1A690AB1A6
:100A60001B699847A20604D5084B1A6E0AB11B6E83
:100A70009847E30606D5054BD3F8842012B1D3F886
:100A80008430984710BD00BFA0900440488DFF1FE0
:100A90001F4B10B51C681C60E00304D51D4B1A6881
:100AA0000AB11B689847A10304D51A4B5A680AB1CA
:100AB0005B689847E20704D5164B1A6C0AB11B6CA9
:100AC0009847A30704D5134B5A6C0AB15B6C98473F
:100AD000200704D50F4B9A6C0AB19B6C98476107AD
:100AE00004D50C4BDA6C0AB1DB6C9847220304D5B1
:100AF000084B5A6E0AB15B6E9847630306D5054BE7
:100B0000D3F8802012B1D3F88030984710BD00BFD1
:100B1000A0A00440488DFF1F2C4B10B51C681C6022
:100B2000200704D52A4B5A6A0AB15B6A9847E10646
:100B300004D5274B9A6A0AB19B6A9847620604D586
:100B4000234BDA6A0AB1DB6A9847230604D5204BA7
:100B50001A6B0AB11B6B9847A00604D51C4B5A6B45
:100B60000AB15B6B9847E10704D5194BDA6B0AB100
:100B7000DB6B9847A20704D5154B9A6D0AB19B6DA4
:100B80009847630704D5124BDA6D0AB1DB6D9847BD
:100B9000A00504D50E4BDA6E0AB1DB6E9847E1056D
:100BA00004D50B4B1A6F0AB11B6F9847620504D529
:100BB000074B5A6F0AB15B6F9847230504D5044B66
:100BC0009A6F0AB19B6F984710BD00BFA0B0044058
:100BD000488DFF1F1E4B10B51C681C60E00704D534
:100BE0001C4B9A680AB19B689847210604D5194B9B
:100BF0005A690AB15B699847E20604D5154B9A69B0
:100C00000AB19B699847630704D5124BDA690AB1A8
:100C1000DB699847200704D50E4B1A6A0AB11B6A94
:100C20009847A10704D50B4B9A6B0AB19B6B984769
:100C3000A20604D5074B1A6D0AB11B6D98476306CF
:100C400004D5044B5A6D0AB15B6D984710BD00BFC7
:100C5000A0C00440488DFF1F094B10B51C681C60E4
:100C6000A20704D5074B9A6E0AB19B6E9847E3071B
:100C700004D5044BDA6F0AB1DB6F984710BD00BF93
:100C8000A0D00440488DFF1F014B1868704700BF7B
:100C900000D00340044B054900221A600A60044A50
:100CA000106010221A60704714D0034004D0034033
:100CB00000D0034000280EDB02024FF48073B2F52F
:100CC000004F06D3013B012BC0EB020101D00A46C5
:100CD000F5E7120A10E0404202024FF48073B2F5C9
:100CE000014F06D3013B012BC0EB020101D00A46A4
:100CF000F5E7120AC2F58072013B024942EA03227B
:100D00000A6070470CD0034018B1102828BF10208B
:100D100000E00120014B1870704700BF0884FF1FDE
:100D200010B500234FF437721A41914202D80133B3
:100D3000072BF7D1154A1A4102EB5102B2FBF1F130
:100D400001394FF6FF72914228BF1146C21E012A97
:100D500006D80F4A0F4C0020106020600E480FE0AC
:100D6000421F012A06D9A0F10902012A02D914382A
:100D7000032809D8094A0A4C00201060206009485D
:100D800043F008030160136010BD00BF006CDC027B
:100D9000009003400490034008900340008003400B
:100DA0000480034008800340212810B518D80D4A5C
:100DB00052F8303093F880423CB1012211B183F8EF
:100DC000802010BD83F8002110BD02EBC0004368F5
:100DD0001A6811B142F0030201E022F002021A6027
:100DE00010BD00BF24690000212806D8044B53F829
:100DF000303093F80002C0B270470020704700BF47
:100E000024690000212816D80B4A02EBC0030129EF
:100E10005B6852F8302004D182F880124FF4A2723D
:100E200008E0002082F8800211B94FF4807201E0DE
:100E300040F203121A60704724690000282838B570
:100E4000604A04460B4611D112780B2A04D8C2F12D
:100E50000C0201FA02F304E00C2A1CBF0C3A41FA1E
:100E600002F31846BDE83840FFF7A4BC117801250D
:100E7000002B05FA01F2D8BF002102DD934205D311
:100E80002946FFF791FF2046294697E00338C2B272
:100E9000012A01D84C4A06E0192C01D0202C01D19E
:100EA0004A4A00E04A4A126802FB0332CA401D283F
:100EB0007BD8DFE800F00F171F287A7A313A7A7A68
:100EC0007A7A7A7A7A7A7A434C555E7A707A7A7A32
:100ED0007A7A7A673F4B1A6003F580334FF4517288
:100EE000203360E03C4B1A6003F580334FF45172BD
:100EF0001C3358E0394B1A6003F59F3340F24442EB
:100F000003F5EA734FE0364B1A6003F59F3340F266
:100F1000444203F5F07346E0324B1A6003F5973311
:100F200040F2444203F5F6733DE02F4B1A6003F59F
:100F3000973340F2444203F5F47334E02B4B1A60CC
:100F400003F59F3340F2444203F5EE732BE0284B48
:100F50001A6003F59F3340F2444203F5EC7322E03C
:100F6000244B1A6003F5973340F2444203F5FA73B9
:100F700019E0214B1A6003F5973340F2444203F520
:100F8000F87310E01D4B1A60A3F5DB234FF4517288
:100F9000A3F5F96307E01A4B1A60A3F5DB234FF4BE
:100FA0005172A3F2CC731A6038BD7F2B2046D4BF98
:100FB00000210121FFF7F8FE20460121BDE838405D
:100FC000FFF720BF0884FF1F0890034008800B40F4
:100FD000088003401090034018900340488003406D
:100FE0003080034020800340288003403880034045
:100FF00040800340108003401880034010800B4065
:1010000018800B402DE9F04107460E469046082413
:10101000012505EA08013846FFF7C6FE30460121E2
:10102000FFF7C2FE30460021FFF7BEFE6D00013C17
:10103000EDB2EED1BDE8F0812DE9F04107460E4654
:1010400090460824802505EA08013846FFF7ACFEE3
:1010500030460121FFF7A8FE30460021FFF7A4FE2D
:10106000013C4FEA5505EED1BDE8F08112B91A46B0
:10107000FFF7C8BF1A46FFF7DFBF2DE9F0418046F2
:101080000F4608240025012638460121FFF78CFE73
:101090004046FFF7A9FE00B1354338460021FFF76F
:1010A00083FE7600013CF6B2EED12846BDE8F08121
:1010B0002DE9F04180460F46082400258026384659
:1010C0000121FFF771FE4046FFF78EFE00B1354368
:1010D00038460021FFF768FE013C4FEA5606EED184
:1010E0002846BDE8F0810AB9FFF7C7BFFFF7E0BFA8
:1010F00072B60C4B0C491A680C4BD3F8883009684F
:1011000062B6490102D5322A88BF0133C2F53B429B
:1011100030217F32B2FBF1F24FF47A7000FB0320F2
:10112000704700BF18E000E004ED00E0488DFF1FAD
:1011300038B50446FFF7DCFF054664B1FFF7D8FF7A
:10114000401BB0F57A7F03D3013C04D005F57A75D6
:1011500000F064FEF2E738BD10B5FFF71BFC174B3B
:10116000174A184C00204BF6FF711860596028236D
:1011700013609360136193611362936213639363CB
:101180000922226004F58054043420606160A36069
:10119000236144F8042C04F5FE2420600A48016011
:1011A0000A490B608B600A4B1A60FFF7CDF90420E7
:1011B000FFF7BEFFBDE8104000F056BC04800340BE
:1011C0000C8003400080034008800B400C800B40E3
:1011D00000800B4070B50546C1EBC1042B782BB1E4
:1011E000013CFBD1002070BD013CFBD02B78002BD3
:1011F000FAD0FFF77DFF06462B7813B1013CFBD1F7
:10120000F0E7FFF775FF801B70BD70B50546C1EBB9
:10121000C1042B782BB9013CFBD1002070BD013CEF
:10122000FBD02B78002BFAD1FFF762FF06462B7814
:1012300013B9013CFBD1F0E7FFF75AFF801B70BDEB
:1012400021280BD8064B53F8300000F5007011B17F
:101250001146FFF7BFBF1146FFF7D7BF0020704709
:10126000246900001FB572B6124B70221A70124A20
:10127000412111700F2102F8011C80221A701A7886
:101280001206FCD562B60D4B01AC186821460A2245
:10129000FFF737FB0023E15C094A29B102EB430069
:1012A00001330A2B4180F6D101335B00137004B087
:1012B00010BD00BF000002400700024008000240CD
:1012C0000A84FF1F70B50C4B0C4C1A7842F00205D3
:1012D00004EBC50682F00102706058781A7000288D
:1012E0000CBF8826C82680F0010046EA01415870EC
:1012F00044F8351070BD00BFD48DFF1F0080FF1F64
:10130000431E032B10B510D872B6094A02EB8302B4
:10131000506808B141685160064A018832F81340AC
:10132000611A22F8131062B610BD002010BD00BF74
:10133000D48DFF1F008FFF1F013803280CD8074BE7
:1013400003EB8000436972B600201BB11A885B680A
:101350001044FAE762B6704700207047D48DFF1F33
:10136000013803280BD872B6064B03EB80004369A3
:10137000002013B101305B68FBE762B670470020C4
:10138000704700BFD48DFF1F10B572B60123184AF5
:101390001A4412F8012C12071ED59900154A52F86A
:1013A00031402CB902EB431308305860124B09E06E
:1013B00041F0010152F8314074B902EBC103083029
:1013C00058600E4B42F831300D4B93F82420013A0F
:1013D00083F8242062B610BD0133052BD7D162B645
:1013E000074B002283F82420BDE8104000F0AABB80
:1013F000346A00000080FF1F88004000C8004000E1
:10140000D48DFF1F421E032A30B533D81A4B40013A
:1014100040F01000184472B6184CA31893F8253009
:10142000032B09D8DFE803F0130215050830022367
:1014300010E0083004230DE09200A318586908B9A1
:10144000596101E0DB6A59602244D16211E0032353
:1014500000E00523224410F0080F82F8253001F146
:1014600008030A8843600CBF8823C82343EA024369
:10147000036062B630BD00BF0080FF1FD48DFF1F28
:1014800000BE70472DE9F84FAD4F3C78E4B214F040
:10149000040F3D461BD0AB4B93F84420AAB193F800
:1014A000451001F0FF0229B1013AD2B283F845207C
:1014B00002B900BEA44A117801F0FF0329B1013B33
:1014C000DBB213700BB900F08BFC04233B7004F00B
:1014D000080303F0FF02002B00F073829B4B9C4D2E
:1014E0001A78D2B214094FEA920840F0DD8105EB78
:1014F000C803596855F83830C3F38303013B0C2BFC
:1015000000F2CE81DFE813F08A018A01CC01CC0120
:10151000CC01CC01CC01CC01A701CC01CC01CC0188
:101520000D000A68874C4B68A264E36492B2894B51
:1015300045F8383040F28160002301218242236562
:101540002B61AB616170A04619D8B2F5D06F80F005
:101550001581B2F5817F00F0D18006D8802A00F095
:10156000B880822A00F0BA8024E140F202318A4237
:1015700000F0D580B2F5A06F00F020811AE1B2F53D
:10158000106F18D009D8B2F5086F40F0138194F8A5
:10159000443084F83C300B4613E142F221018A4288
:1015A00000F0398142F221218A4240F0038194F80F
:1015B0004A10694AFCE0664E94F84A3084F8443098
:1015C00006F18009336A1B0603D5706A083800F0FB
:1015D000B9FA08364E45F5D10026B146DFF898A194
:1015E00056F80A0028B1D0F804B000F0ABFA58461B
:1015F000F8E75A4B4AF80600A3F1400AF05056F8B3
:101600000A0028B1D0F804B000F09CFA5846F8E778
:10161000534B544AF050073B22F8190019F80320A5
:101620004AF80600023A032A08D8DFE802F002046A
:101630000204002200E0012203F8092009F1010957
:10164000B9F1040F06F10406C8D1002384F8243050
:101650000126454A454B3244334412F8012C9B0085
:1016600012F0080F1A704FEA860925D000F04CFAE4
:1016700038B105EB4613083058603D4B45F839301A
:1016800006E098F8243045F83900013388F8243012
:1016900000F03AFA49F0010338B105EBC302083013
:1016A00050602C4A45F8332006E045F8330098F89E
:1016B0002430013388F8243049F00202013649F021
:1016C00003090023052E45F8323045F83930C0D1E2
:1016D00074E084F83C3084F83D3071E0B4F84C207C
:1016E000042A67D884F83C3084F83D309200214BBE
:1016F0009B5C9D0764D584F83C1061E0B4F84C20F5
:1017000002F07F03042B55DCB4F84A30002B51D192
:101710009100184A0A44117821F0020148E0B4F817
:101720004C2002F07F03042B44DCB4F84A30002B39
:1017300040D191000F4A0A44117841F0020137E08C
:1017400080200740D48DFF1FC98EFF1F90200740C7
:101750000080FF1FC8004000CA8EFF1F288EFF1F99
:10176000008EFF1F008FFF1F346A000030C8011079
:1017700088004000C0200740D88DFF1FB4F84A20E1
:10178000B4F84C10AB4B53F8085CA3F10C008DB1CE
:1017900033F80C6C964209D133F80A6C8E4205D1AD
:1017A000120A032A0CBF2B7803890CE00C33EAE7FA
:1017B000117003E0A04B0F221A702CE01D4602E0CE
:1017C000022308F13C05B4F84E80434538BF9846E3
:1017D000B8F1400F34BF4646402628463146FFF751
:1017E00071FDB8EB0608354403D1402E13D14646AF
:1017F00004E0B8F1400F34BF464640262846314643
:10180000FFF760FDB8EB0608354401D1402E02D148
:101810002565A4F864800122884B40E0884AB2F82C
:10182000480042F22103984211D100238548CC5C44
:101830001C540133072BF9D103680020862B08BF05
:101840000F23014608BF82F84530FFF73BFD7E4B72
:1018500045F8383024E07A4C266DA6B1B4F864809F
:10186000B8F1400F34BF4546402530462946FFF7C2
:1018700029FDC5EB08039BB2A4F864300BB9402DD9
:1018800000D173192365B4F848206D4BB2F5A06FF1
:1018900006D1002283F8492093F84A206B4B1A7036
:1018A000664B01221A7089E005EBC806013C73689B
:1018B00002F00802A3F10800E4B202F0FF01002ADE
:1018C00045D000F03FF95E4B03EB840C1819DCF8AF
:1018D00014201AB35168CCF8141002F10801716099
:1018E00090F82510032910D8DFE801F00205080B55
:1018F0001C44032307E01C44022304E01C4405238A
:1019000001E01C44042384F8253016F0080F1288E7
:101910000CBF8823C82343EA02434DE090F82520FA
:10192000032A0BD8DFE802F04A4A02051C440023D0
:1019300001E01C44012384F825303FE016F0080F35
:101940001C440CBF0222032284F8252036E055F8FF
:101950003820120C23F8082C42B3DFF8E4C023F837
:10196000061C4FEA840E43F8041C0CEB0E014B6876
:101970000BB9486001E04B6D58600CEB0E03DFF8CB
:10198000C0905865324B33F814100A4423F81420E1
:1019900000F0BAF810B10830706007E099F8243010
:1019A00045F83800013389F8243007E0264B294AEE
:1019B00016F0080F08BF134645F8383008233B706F
:1019C00062E5E00720D51E4C1C48224E214602232A
:1019D000037001F8682B204BA8341E6059601A610F
:1019E0009A619E60DC60144B0D2119701B49FF2326
:1019F0000B702B700A741A4A13701A4B9F221A70BC
:101A000001230370BDE8F88F210604D50A4B0D228F
:101A10001A7080232B70A20705D5104B1A78D2B20A
:101A20001A7002232B70E30644BF10232B70BDE80D
:101A3000F88F00BF446A0000C02007409420074090
:101A4000D48DFF1F088FFF1FC8004000982007405B
:101A5000008FFF1F880040000080FF1F8820074084
:101A60008C2007408420074008B5FFF7FBFB0023CC
:101A70001F4A00219950D0180833882B4160F7D1B4
:101A80001C4B196841F48021196003F52833D833C1
:101A900080211970187818490006FBD4174BC2F33F
:101AA00007201870C2F30740120E18751A76144AF0
:101AB000FF231370137202F8703C0B7843F040035D
:101AC0000B7001230021137582F8801013710D4BE8
:101AD00070226FF450711A700B444FF400721A6048
:101AE00003F1C04303F5C82310221A7008BD00BFDC
:101AF0000080FF1F348004400C2107409C200740D9
:101B00008020074049E400E072B60C4A1168B1FA3F
:101B100081F30B2B02D962B6002070474FF00040D2
:101B2000D84021EA0001116062B6054948225343BA
:101B3000C8180022CA504260704700BFA884FF1F27
:101B4000A080FF1F0C4B4822C31AB3FBF2F30B2BF0
:101B500011D80A4A127822B1094A12780AB1FFF75D
:101B600013BC72B6074A4FF0004121FA03F3116823
:101B70001943116062B67047A080FF1FF88DFF1FE8
:101B8000188EFF1FA884FF1F10B5104C23686BB17F
:101B900020684288531C0244147A0288934212D36C
:101BA000FFF7D0FF094B00221A600DE0084B1B78AD
:101BB00013B94FF0FF3010BD0320FFF7A1FB2060E9
:101BC0000028E5D1F5E74380204610BDBC8EFF1FFD
:101BD000188EFF1F10B50B4C236813B123686BB927
:101BE00002E0094B1B7813B94FF0FF3010BD032002
:101BF000FFF786FB20600028F0D1F5E75A881344F0
:101C0000187A10BDBC8EFF1F188EFF1F044B9888DA
:101C1000044B1B681BB11A885B88D31A18447047A1
:101C2000008FFF1FBC8EFF1F2DE9F04180460E463E
:101C30000027002E2ED0194B1B785BB3184C23685D
:101C400025464BB90320FFF75BFB286010B30388E0
:101C500013B9FFF777FFF5E72468618825886D1AC7
:101C6000AE4238BF3546083140462A46214400F08E
:101C7000B7FA6388A8442F44761B1D442388ADB26D
:101C8000AB426580D5D82046FFF75CFF044B0022AD
:101C90001A60CEE73846BDE8F08100BF188EFF1FFE
:101CA000BC8EFF1F10B5094B1B786BB1084C206828
:101CB00018B1FFF747FF002323600320FFF720FB45
:101CC00010B1FFF73FFFF8E710BD00BF188EFF1FF0
:101CD000BC8EFF1FF8B5284C012306460D46237124
:101CE000002D46D0A3680BBB47F20957234B1B7846
:101CF00003F0FF020BB9227112E00420FFF730FB62
:101D0000072807D801232371FFF7FEFEA06068B9FA
:101D1000194B1871013F01D0237B23B10123237399
:101D20004FF0FF30F8BD00F079F8DFE7A168488890
:101D3000C0F14002954238BF2A4600F1080700234F
:101D4000104423730F444880AD1A934203D0F05CD3
:101D5000F8540133F9E71E444B883F2B06D9402342
:101D60000B800420FFF74EFB0023A3600523637361
:101D7000B6E725712846F8BDBC8EFF1F188EFF1FE1
:101D800007B502AB012103F8010D1846FFF7A2FFCA
:101D900003B05DF804FB70B50F4B1B78D3B10F4C4B
:101DA000A568012626714DB100266B886673042054
:101DB0002B802946FFF726FBA66009E0FFF7A4FE6B
:101DC000014620B104206573FFF71CFB00E0667339
:101DD0000023237170BD00BF188EFF1FBC8EFF1F34
:101DE00038B50D4C237903F0FF059BB9A16831B1DB
:101DF0004B880B800420FFF705FBA56038BDFFF77B
:101E000083FE014620B10420BDE83840FFF7FABA4E
:101E10000123637338BD00BFBC8EFF1F7047FFFFF7
:101E200081F0004102E000BF83F0004330B54FEA8B
:101E300041044FEA430594EA050F08BF90EA020FF8
:101E40001FBF54EA000C55EA020C7FEA645C7FEA8B
:101E5000655C00F0E2804FEA5454D4EB5555B8BFAE
:101E60006D420CDD2C4480EA020281EA030382EA1F
:101E7000000083EA010180EA020281EA0303362DB1
:101E800088BF30BD11F0004F4FEA01314FF4801C84
:101E90004CEA113102D0404261EB410113F0004F96
:101EA0004FEA03334CEA133302D0524263EB43034D
:101EB00094EA050F00F0A780A4F10104D5F1200EEB
:101EC0000DDB02FA0EFC22FA05F2801841F1000146
:101ED00003FA0EF2801843FA05F359410EE0A5F11A
:101EE00020050EF1200E012A03FA0EFC28BF4CF04B
:101EF000020C43FA05F3C01851EBE37101F0004501
:101F000007D54FF0000EDCF1000C7EEB00006EEB0D
:101F10000101B1F5801F1BD3B1F5001F0CD3490897
:101F20005FEA30004FEA3C0C04F101044FEA4452EE
:101F300012F5800F80F09A80BCF1004F08BF5FEA75
:101F4000500C50F1000041EB045141EA050130BD55
:101F50005FEA4C0C404141EB010111F4801FA4F1F8
:101F60000104E9D191F0000F04BF01460020B1FA4D
:101F700081F308BF2033A3F10B03B3F120020CDA85
:101F80000C3208DD02F1140CC2F10C0201FA0CF063
:101F900021FA02F10CE002F11402D8BFC2F1200CC8
:101FA00001FA02F120FA0CFCDCBF41EA0C0190407E
:101FB000E41AA2BF01EB0451294330BD6FEA0404C7
:101FC0001F3C1CDA0C340EDC04F11404C4F12002B2
:101FD00020FA04F001FA02F340EA030021FA04F3C4
:101FE00045EA030130BDC4F10C04C4F1200220FA1B
:101FF00002F001FA04F340EA0300294630BD21FA59
:1020000004F0294630BD94F0000F83F4801306BF1E
:1020100081F480110134013D4EE77FEA645C18BF12
:102020007FEA655C29D094EA050F08BF90EA020FA9
:1020300005D054EA000C04BF1946104630BD91EAA1
:10204000030F1EBF0021002030BD5FEA545C05D1A4
:102050004000494128BF41F0004130BD14F58004E3
:102060003CBF01F5801130BD01F0004545F0FE4157
:1020700041F470014FF0000030BD7FEA645C1ABF8C
:10208000194610467FEA655C1CBF0B46024650EAC3
:10209000013406BF52EA033591EA030F41F40021EF
:1020A00030BD00BF90F0000F04BF0021704730B575
:1020B0004FF4806404F132044FF000054FF000014A
:1020C00050E700BF90F0000F04BF0021704730B50B
:1020D0004FF4806404F1320410F0004548BF4042E0
:1020E0004FF000013EE700BF42004FEAE2014FEA35
:1020F00031014FEA02701FBF12F07F4393F07F4F10
:1021000081F06051704792F0000F14BF93F07F4F41
:10211000704730B54FF4607401F0004521F0004184
:1021200020E700BF50EA010208BF704730B54FF00A
:1021300000050AE050EA010208BF704730B511F00F
:10214000004502D5404261EB41014FF4806404F147
:1021500032045FEA915C3FF4DCAE4FF003025FEAC9
:10216000DC0C18BF03325FEADC0C18BF033202EB51
:10217000DC02C2F1200300FA03FC20FA02F001FAAB
:1021800003FE40EA0E0021FA02F11444C1E600BF4A
:1021900070B50F4E0F4D761BB61007D0043D0024CE
:1021A000013455F8043F9847A642F9D10A4E0B4D29
:1021B000761B04F02FFDB61008D0043D0024013436
:1021C00055F8043F9847A642F9D170BD70BD00BFD5
:1021D000206C0000206C0000286C0000206C0000C7
:1021E000844641EA000313F003036DD1403A41D322
:1021F00051F8043B40F8043B51F8043B40F8043BE1
:1022000051F8043B40F8043B51F8043B40F8043BD0
:1022100051F8043B40F8043B51F8043B40F8043BC0
:1022200051F8043B40F8043B51F8043B40F8043BB0
:1022300051F8043B40F8043B51F8043B40F8043BA0
:1022400051F8043B40F8043B51F8043B40F8043B90
:1022500051F8043B40F8043B51F8043B40F8043B80
:1022600051F8043B40F8043B51F8043B40F8043B70
:10227000403ABDD2303211D351F8043B40F8043B10
:1022800051F8043B40F8043B51F8043B40F8043B50
:1022900051F8043B40F8043B103AEDD20C3205D320
:1022A00051F8043B40F8043B043AF9D2043208D018
:1022B000D2071CBF11F8013B00F8013B01D30B888A
:1022C00003806046704700BF082A13D38B078DD068
:1022D00010F003038AD0C3F10403D21ADB071CBF3A
:1022E00011F8013B00F8013B80D331F8023B20F8A4
:1022F000023B7BE7043AD9D3013A11F8013B00F8DD
:10230000013BF9D20B7803704B7843708B78837064
:1023100060467047F0B4840743D0541E002A3ED074
:10232000CDB2034603E0621E002C38D0144603F8F9
:10233000015B9A07F7D1032C2AD9CDB245EA0525CE
:102340000F2C45EA054515D9A4F110073F0903F103
:10235000100606EB07161A46156055609560D560A5
:102360001032B242F8D104F00F040137032C03EB12
:1023700007130DD91E462246043A032A46F8045B89
:10238000FAD8221F22F003020432134404F003049B
:102390002CB1C9B21C4403F8011BA342FBD1F0BC11
:1023A000704714460346C6E70EB4F0B59CB021ABA7
:1023B0000F4953F8042B019305466FF00044086859
:1023C00002954FF402774FF6FF7602A90695ADF815
:1023D000147004940794ADF8166000F00BF8029B9B
:1023E00000221A701CB0BDE8F04003B0704700BF77
:1023F000D888FF1F2DE9F04FC9B0914610930C917A
:102400000D9002F051FA00681590FEF773FA0C9CDB
:102410001890A3891A0603D52369002B01F08D803B
:1024200038ACA44608942B9400250024CDE9164529
:10243000002311932D932C931A9319930E936646B0
:1024400099F80030002B00F0F880252B00F0F58083
:1024500009F1010201E0252B04D014460132237852
:10246000002BF8D1C9EB04057DB12C9B2D9AC6F841
:10247000009001332A44072B75602D922C9300F3B2
:10248000C28008360E9828440E902378002B00F066
:10249000C280002394F801808DF88F301A460F9384
:1024A000099304F101094FF0FF340A9409F101097D
:1024B000A8F12003582B00F2C783DFE813F06A026B
:1024C000C503C5037102C503C503C503C503C50321
:1024D000C50314036403C5039D00C000C50378024F
:1024E0007F027F027F027F027F027F027F027F02E4
:1024F0007F02C503C503C503C503C503C503C503E3
:10250000C503C503C50390026F03C5036F03C5036D
:10251000C503C503C5036803C503C5037800C50328
:10252000C503C503C503C5035900C503C503AF02F1
:10253000C503C503C503C503C503C503C503C5035B
:10254000C503C503370348036F036F036F03FF021F
:102550004803C503C5030803C503C5027C00210366
:10256000A503C503D902C5035F00C503C503DE008B
:10257000DDF824C04CF0100CCDF824C0099CA20654
:1025800000F15683099CE30600F1E085DDF824C0E4
:102590001CF0400F00F0DA85DDF840C0BCF80040C8
:1025A0000CF1040C00250123CDF840C08CE0099DFE
:1025B00045F010050995DDF824C01CF0200340F01B
:1025C0002C83DDF824C01CF0100240F0B885DDF843
:1025D00024C01CF0400300F0B285DDF840C0BCF818
:1025E00000400CF1040C13460025CDF840C06BE010
:1025F0000F9C109364420F94099D45F004050995C2
:1026000099F8008052E70D980C992BAA02F07CFFF4
:1026100040B938AE36E72D9B23B10D980C992BAA03
:1026200002F072FF0C9C0E98A38913F0400F18BFA4
:102630004FF0FF3049B0BDE8F08F4C4625E799F8E0
:102640000080B8F12A0F09F1010001F01881A8F10A
:102650003003092B98BF002101F2778010F8018B1D
:1026600001EB810103EB4101A8F13003092BF5D9FE
:1026700041EAE1710A9181461AE7099DA14C1A9439
:10268000AF068DF88F2040F1D181DDF840C00CF10C
:10269000070323F0070303F108041094D3E900456E
:1026A000DDF824C01CF0010F00F0648454EA05003A
:1026B00000F0608430234CF0020C8DF890308DF8DF
:1026C0009180CDF824C002234FF0000A8DF88FA02E
:1026D0000A99002905DBDDF824C02CF0800CCDF828
:1026E00024C054EA050040F0C7820A99002940F04E
:1026F000C382002B40F03A84DDF824C01CF0010FA7
:1027000000F0348448AF302307F8413D089DEC1BAE
:10271000DDF828C000256445A8BFA446CDF82CC02C
:102720001495BAF1000F02D00B9D01350B95099B52
:1027300013F00203129302D00B9D02350B95DDF8C6
:1027400024C01CF0840CCDF84CC040F092820F9D48
:10275000DDF82CC0CCEB050BBBF1000F40F38982F8
:10276000BBF1100F2D992C9ADFF8A0A12CDD1B973F
:10277000304657461025CA460C9EA1460D9C06E0E1
:10278000ABF1100BBBF1100F00F1080017DD0132A7
:102790001031072A2D912C9207604560F0DD20460C
:1027A00031462BAA02F0B0FE00287FF43BAFABF11C
:1027B000100BBBF1100F2D992C9A38A8E7DC4C4672
:1027C000D146BA461B9F064601320BEB010C072A85
:1027D000CDF8B4C02C9286E8000C00F31C849DF860
:1027E0008FA00836BAF1000F0FD02C9B01330CF1EB
:1027F000010C0DF18F010122072BCDF8B4C02C93F1
:1028000086E8060000F39A830836129B73B12C9B6E
:1028100001330CF1020C24A90222072BCDF8B4C01D
:102820002C9386E8060000F395830836139D802DCF
:1028300000F0CC820A9DC4EB050ABAF1000F3BDD23
:10284000BAF1100F2C9B304D2BDD0A9432464FF01D
:10285000100B2E4661460D9C0C9D06E0AAF1100A55
:10286000BAF1100F02F1080217DD01331031072B06
:102870002D912C9382E84008F0DD204629462BAAB2
:1028800002F042FE00287FF4CDAEAAF1100ABAF1A0
:10289000100F2D992C9B38AAE7DC0A9C35468C46F4
:1028A00016460133D444072BCDF8B4C02C9386E8E8
:1028B000200400F337830836099DED0500F12682D8
:1028C0002C9B37600133A444072BCDF8B4C074604F
:1028D0002C9300F311830836099C630749D50F9D9B
:1028E0000B982C1A002C44DD102C2C9BDFF81CA01C
:1028F0002BDD574610256246DDF83080DDF834A028
:102900000BE000BFC86A0000946A0000E86A00009B
:10291000103C102C06F1080615DD01331032072B90
:102920002D922C9337607560F2DD504641462BAAFC
:1029300002F0EAFD00287FF475AE103C102C2D9AB1
:102940002C9B38AEE9DC9446BA460133A444072BED
:10295000CDF8B4C02C93C6F800A0746009DD0D98C2
:102960000C992BAA02F0D0FD00287FF45BAEDDF8B5
:10297000B4C00E9C0B980F9DA842ACBF24186419DC
:102980000E94BCF1000F40F0C38200232C9338AEAC
:1029900056E599F80080002A7FF488AD202285E56D
:1029A000099D45F00105099599F800807EE5099D8E
:1029B00045F08005099599F8008077E50024A8F195
:1029C00030030F94214619F8018B01EB810103EBD1
:1029D0004101A8F13003092BF5D90F9168E5DDF825
:1029E00024C08DF88F204CF0100CCDF824C0099C29
:1029F000A30640F1B280109DE91D21F00701D1E945
:102A000000230831109114461D46002A73F100007E
:102A1000C0F28B839DF88FA0012359E6099DB74C26
:102A20008DF88F20AF061A943FF52FAE099DED0665
:102A300040F15D84DDF840C0DCF800400CF1040C8E
:102A4000CDF840C000252BE6DDF824C08DF88F209E
:102A50001CF0200F00F03D84109C21680E9CE517AF
:102A60002B46109D224604351095C1E90023E7E46A
:102A7000109C27684FF0000A8DF88FA0251D002FAD
:102A800000F0F5850A9C002C3846C0F2A785514617
:102A9000224602F0A9F9002800F01F860A9C109532
:102AA000C01BA042B8BF044624EAE475CDF828A0B4
:102AB000CDF850A00B959DF88FA032E6DDF824C02C
:102AC0004CF0400CCDF824C099F80080EEE499F861
:102AD0000080B8F16C0F4B4600F08B84099D45F0E7
:102AE00010050995E2E4109C109D24680F94002CB9
:102AF00005F10403FFF67CAD109399F80080D5E44E
:102B0000109ADDF824C07E4814681A903023151DF1
:102B10004FF078084CF0020C8DF890301095CDF8FD
:102B200024C000258DF891800223CDE5109A109DD8
:102B300012688DF8B8200023012404359A460B94BE
:102B400010958DF88F300A9314932EAFEFE5099C02
:102B50008DF88F20A3063FF54EAFDDF824C01CF0A2
:102B6000100F40F0D282099C670640F1CE82DDF85A
:102B700040C0BCF900400CF1040CE51722462B467E
:102B8000CDF840C041E799F800802B228EE4099DE2
:102B900045F00805099599F8008087E4109D099C87
:102BA0008DF88F20EB1D250723F0070340F18A8362
:102BB000D3E90045CDE9164503F1080CCDF840C036
:102BC000DDE9160102F066FC0128DDE9160140F09E
:102BD0005F830022002303F06FFB002840F06D8527
:102BE0009DF88FA003250B95099D464F464B25F078
:102BF00080050024099500250A94B8F1470FD8BF35
:102C00001F46032414958CE5DDF824C04CF0200CFD
:102C1000CDF824C099F8008048E4109CE31D23F00F
:102C2000070303F108051095D3E9004500234BE5A0
:102C3000109DEB1D23F0070303F1080CD3E90045B9
:102C4000CDF840C001233FE58DF88F20B8F1000F8B
:102C50003FF4E1AC00234FF0010C9A46CDF82CC0B4
:102C60008DF8B8808DF88F300A93149364462EAF98
:102C70005DE5DDF8B4C0B5E5012B00F0EC80022B7A
:102C80000DF1DF0318D1DDF868C0194604F00F001C
:102C9000220942EA05720F462B091CF80010397010
:102CA00052EA030014461D4607F1FF31EED1089D9C
:102CB000CDE91E23EC1B2BE5E00840EA457004F04B
:102CC0000702E908303250EA010C1F461A70044628
:102CD0000D4603F1FF33EFD1099CCDE91C01E0075C
:102CE000394640F1C180302A00F0BE80089D1F4661
:102CF0003023EC1B01F8013C0AE500BFB46A000078
:102D0000C86A0000A86A0000A46A0000B8F1650F54
:102D100040F3AD80DDE9160100220023CDF81CC090
:102D200003F0C0FADDF81CC0002800F026812C9BBF
:102D3000AA4A326001330CF1010C0122072BCDF8B5
:102D4000B4C02C93726000F3F7820836259B119C67
:102D5000A34203DB099DEC077FF5BEAD2C9B189DBC
:102D6000159C34600133AC44072BCDF8B4C07560BA
:102D70002C9300F348830836119D6C1E002C7FF7BE
:102D8000ABAD102C2C9B964D40F3978110276246DB
:102D9000DDF83480DDF830A004E00836103C102C5B
:102DA00040F38A8101331032072B2D922C9386E851
:102DB000A000F2DD404651462BAA02F0A5FB0028F8
:102DC0007FF430AC2D9A2C9B38AEE7E70F9D0B9823
:102DD000C0EB050ABAF1000F7FF72CADBAF1100F66
:102DE0002C9B7F4D2BDD129432464FF0100B2E465C
:102DF00061460D9C0C9D06E0AAF1100ABAF1100F75
:102E000002F1080217DD01331031072B2D912C93AD
:102E100082E84008F0DD204629462BAA02F074FB28
:102E200000287FF4FFABAAF1100ABAF1100F2D9918
:102E30002C9B38AAE7DC129C35468C46164601339B
:102E4000D444072BCDF8B4C02C9386E8200400F3BB
:102E500012820836EEE4002D08BF0A2C80F038817B
:102E600048AF303407F8414D089DEC1B50E4119CED
:102E7000012C2C9C40F3D58101340CF1010301227B
:102E8000072C37602D932C94726000F3DB81083699
:102E9000DDF86080159D356001349844189DCDF8AB
:102EA000B480072C2C94756000F3D8810836DDE9D6
:102EB00016010022002303F0F5F9119D002840F0CF
:102EC000B9806B1E013401379844072C2C94CDF83F
:102ED000B4803760736000F3E2800836DDF864C0C8
:102EE000199D0134C44427AB072CCDF8B4C02C94F1
:102EF00086E828007FF7EFAC0D980C992BAA02F01A
:102F000003FB00287FF48EABDDF8B4C038AEE3E4F9
:102F10000D980C992BAA02F0F7FA00283FF435AD72
:102F2000FFF780BB0D980C992BAA02F0EDFA002850
:102F30007FF478ABDDF8B4C038AEBDE40D980C99E1
:102F40002BAA02F0E1FA00287FF46CABDDF8B4C0E4
:102F500038AE5AE40D980C992BAA02F0D5FA002845
:102F60007FF460ABDDF8B4C038AE5FE40A9C38AFE4
:102F7000FFF7CEBB0223FFF7A7BB259B002B40F337
:102F8000E781119C149DDDF844A0AC42A8BF2C46FB
:102F9000002CBA440BDD2C9B37600133A444072B73
:102FA000CDF8B4C074602C9300F328830836149DC8
:102FB00024EAE4742C1B002C40F3DB80102C2C9BA7
:102FC000074D40F3AD810A974FF010082F46624637
:102FD0002546DDF834B00C9C09E000BFE46A00002F
:102FE000946A00000836103D102D40F3958101339E
:102FF0001032072B2D922C9386E88001F2DD584683
:1030000021462BAA02F080FA00287FF40BAB2D9A00
:103010002C9B38AEE7E70D980C992BAA02F074FAB6
:1030200000287FF4FFAA9DF88FA0DDF8B4C038AE69
:10303000FFF7D8BB6F1E002F7FF750AF102FB34D97
:1030400023DD43464FF0100ADDF83480DDF830B060
:1030500004E0103F102F06F1080615DD013410338F
:10306000072C2D932C9486E82004F2DD4046594627
:103070002BAA02F049FA00287FF4D4AA103F102F9F
:103080002D9B2C9C38AEE9DC98460134B844072CC3
:10309000CDF8B4802C9486E8A0007FF71EAF0D9881
:1030A0000C992BAA02F030FA00287FF4BBAADDF8B5
:1030B000B4802C9C38AE11E794460133A444072B0E
:1030C000CDF8B4C02C93356074607FF704AC13E77F
:1030D0000DF1DF0B204629460A22002303F03CF9BC
:1030E00030328BF80020204629460A22002303F0C4
:1030F00033F904460D4654EA050C5F460BF1FF3BDD
:10310000E8D1089DEC1BFFF703BB109DDDF840C024
:103110002C68E51722462B460CF1040C002A73F1AB
:103120000000CDF840C0BFF675AC4FF02D0A6442E8
:1031300065EB45058DF88FA00123FFF7C9BA109DF7
:103140002C68043510950025FFF7BEBA109D2C6839
:103150000435109501230025FFF7B6BA0D980C9998
:103160002BAA02F0D1F900287FF45CAADDF8B4C0E4
:1031700038AE149D259C2F44119DAC4242DB099D25
:10318000E9073FD41198C7EB0A05041BAC42B8BF4E
:103190002546002D0BDD2C9B37600133AC44072BFB
:1031A000CDF8B4C075602C9300F35282083625EA3E
:1031B000E575641B002C7FF78FAB102C2C9B534DB7
:1031C0007FF77BAF10276246DDF83480DDF830A052
:1031D00004E00836103C102C7FF76EAF013310323C
:1031E000072B2D922C9386E8A000F2DD4046514635
:1031F0002BAA02F089F900287FF414AA2D9A2C9B9F
:1032000038AEE7E72C9B159D3560189D756001333E
:10321000AC44072BCDF8B4C02C9300F3FB810836E7
:10322000B0E7099DEA073FF527AE01340CF101082C
:103230000123072CCDF8B4802C94376073607FF79E
:103240004CAE2CE70D980C992BAA02F05DF90028E2
:103250007FF4E8A92D9B2C9C38AE19E60D980C99AB
:103260002BAA02F051F900287FF4DCA9DDF8B48024
:103270002C9C38AE1BE60D980C992BAA02F044F951
:1032800000287FF4CFA9DDF8B4C038AEFFF7D2BA7A
:1032900002F000F9002840F0C280099C1C4F1D4B31
:1032A0009DF88FA00A904FF0030C24F0800409943D
:1032B000CDF82CC01490B8F1470FD8BF1F46644614
:1032C000FFF72FBAD3E900450833CDE9164510932F
:1032D00076E4DDF824C01CF0100F00F05581109C3E
:1032E0000E9D2368043410941D60FFF7A9B8099C53
:1032F000640640F14281DDF840C0BCF800400CF1AA
:10330000040C0025CDF840C0FFF7CAB9946A00004C
:10331000B06A0000AC6A00002C463D460A9F944605
:103320000133A444072BCDF8B4C02C9335607460EE
:103330003FF714AF08361CE70D980C992BAA02F042
:10334000E3F800287FF46EA9DDF8B4C038AEFDE4E0
:103350002C9AB749316001320CF1010C0121072A86
:10336000CDF8B4C02C92716000F3F78008361C468B
:103370002CB9119D1DB9099DE8077FF5ADAA2C9BBD
:103380001899159D356001336144189D2D91072BC7
:1033900075602C9300F3DE8106F108026442002C74
:1033A00040F30B81102CA34D40F34881A346102617
:1033B0000C46DDF83480DDF830A006E00832ABF1D1
:1033C000100BBBF1100F40F3378101331034072B82
:1033D0002D942C9382E86000F0DD404651462BAAE4
:1033E00002F092F800287FF41DA92D9C2C9B38AA8E
:1033F000E5E7099C93F8018044F0200409F10109F4
:103400000994FFF753B80D980C992BAA02F07CF899
:1034100000287FF407A9DDF8B4C038AEACE40A9DFB
:10342000013528F0200A00F0A580BAF1470F04D139
:103430000A9D002D08BF01250A95DDE91623DDF858
:1034400024C0002B4CF4807CCDF848C0C0F29C8195
:10345000DDE91645CDE920454FF0000BB8F1660FC8
:1034600000F09B81B8F1460F00F0A981BAF1450F39
:103470000ABF0A9C0A9D651C022025A926AA29AB21
:103480008DE821000392049302910D98DDE9202339
:1034900000F0D6FAB8F1670F074602D0B8F1470F2F
:1034A00005D1DDF824C01CF0010F00F09C81BAF1B9
:1034B000460F07EB050400F01C81DDE92001002226
:1034C000002302F0EFFE002840F00581299B9C427A
:1034D00006D930215A1C29921970299B9C42F9D88F
:1034E000DB1BBAF1470F119300F0ED80B8F1650FC7
:1034F00040F3F281B8F1660F00F06881259C1494C6
:10350000119C149DAC4200F33281DDF824C01CF004
:10351000010F40F0AD8125EAE5732C464FF06708B6
:10352000BBF1000F40F0B280129D0B930995CDF8CE
:1035300028B09DF88FA0FFF7F4B80D98402101F056
:10354000B7F920602061002800F0BF81DDF830C0AD
:103550004023CCF81430FEF763BF0D980C992BAACA
:1035600001F0D2FF00287FF45DA8259CDDF8B4C0EF
:1035700038AEFDE606240A945FE7109D2C680435FA
:1035800010950025FFF78CB8DDF824C01CF0400F23
:1035900000F08780109C0E9D2368043410941D80D9
:1035A000FEF74EBF0D980C992BAA01F0ADFF002835
:1035B0007FF438A82D992C9B38AADDF844C0119CC3
:1035C000176001338C44072BCDF8B4C02C935460A2
:1035D0003FF792AC02F10806FFF77EB9CDF828A0BC
:1035E000FDF788F9109520EAE07C0A9DCDF82CC003
:1035F000044614959DF88FA0FFF793B80D980C9989
:103600002BAA01F081FF00287FF40CA8DDF8B4C0DC
:1036100038AECCE40D980C992BAA01F075FF002868
:103620007FF400A8259CDDF8B4C038AEAAE500BF41
:10363000E46A0000946A000021465C46013321449C
:10364000072B2D912C9315605460ABDC0832B4E746
:103650000D980C992BAA01F057FF00287EF4E2AFD9
:10366000259C1199DDF8B4C00C1B38AE9FE50A9C6F
:103670001497062C28BF062424EAE47CBA460A974D
:103680001095CDF82CC0974FFFF74BB8129D0995B8
:103690004FF02D0A00250B938DF88FA00A95FFF7A8
:1036A00043B8DDF840C00E9CDCF800300CF1040C8F
:1036B000CDF840C01C60FEF7C3BE4FF02D0A8DF858
:1036C0008FA0FFF78FBA259BDC1C19DB0A9C9C425C
:1036D00016DB149314E7234602E724EAE47CCDF8D2
:1036E0002CC00A9C10950A9014909DF88FA0FFF7AB
:1036F00018B83B78302B00F0AD80259D2C44DCE6DB
:10370000A8F10208013B002B2593BABF5B422D2292
:103710002B22092B8DF89C808DF89D2065DC3033A1
:1037200030228DF89F308DF89E2028AB119D119C82
:1037300027AA9A1A012D1992144440F3B780013434
:10374000002524EAE4731495EAE6002481460A94ED
:10375000FEF7AEBE0D980C992BAA01F0D5FE0028FD
:103760007EF460AF259C2D992C9B38AA16E6149CFC
:10377000119D002CD4BFC4F1020401242C4424EA7E
:10378000E4734FF06708CBE617991698209001F183
:10379000004121914FF02D0B60E60A9D0195032019
:1037A00025A926AA29AB00900392049302910D98B3
:1037B000DDE9202300F044F90A9D074677E60A9CDC
:1037C0000194032025A926AA29ABECE7259D149591
:1037D000002D0A9C63DDB4BB099DE80733D4149C1B
:1037E00024EAE4739CE6299B7AE60DF1AA003E4D9B
:1037F000DA1785FB0351C2EBA10101EB81040246FC
:10380000A3EB440303F13000092910700B4602F1C9
:10381000FF30ECDC01F130030DF1AB04D9B284428E
:1038200002F8011C5AD90DF19D00134601E013F86E
:10383000011BA34200F8011FF9D10DF5907CC2EBEA
:103840004C03F63B72E70A9D6C1C149D2C4424EA41
:10385000E47365E6DDE920010022002302F022FD89
:1038600000287FF44AAFC5F1010525952C4424E6D4
:10387000149D6C1C24EAE4734FF0670850E6109D19
:10388000DDF840C02D6899F801800A950CF1040319
:10389000002D10938146BEF609AEFEF704BE7CB93A
:1038A000099DE9070CD401231C4639E6DDF824C044
:1038B0001CF001037FF443AF149324EAE4732FE672
:1038C0000A9DAC1C24EAE4732AE60D9D0C232B60B0
:1038D0004FF0FF30FEF7AEBE259B13E70DF19E03C0
:1038E00024E700BFDC6A000067666666024B13B11E
:1038F000024800F005B87047000000007948000059
:10390000014600200246034601F07EBE2DE9F04F3D
:1039100003690D699D4283B0834600F38B80013DAE
:1039200001F1140400F1140A54F825205AF8253046
:103930000132B3FBF2F8AA00914600925244A1442E
:103940000192B8F1000F3DD04FF0000E70462246B4
:1039500053468C4652F8046B1968B7B2360C07FB15
:1039600008EE06FB08F606EB1E461FFA8EF7C71B8D
:10397000B0B217FA81F7C0EB114000EB2740BFB29D
:1039800047EA0047914543F8047B4FEA20404FEA5D
:10399000164EDFD2009A5AF80230614693B9019A66
:1039A000131F9A450CD252F8043C4BB9A2F10803FC
:1039B00002E01A68043B1AB99A4505F1FF35F8D3BD
:1039C000CBF81050584601F079FC00282EDB08F1A6
:1039D00001085346002254F8046B1868B1B2521A19
:1039E000360C12FA80F1C6EB104202EB214289B28A
:1039F00041EA0241A14543F8041B4FEA2242EAD2C0
:103A00005AF825200AEB850382B91A1F92450BD27A
:103A100053F8042C42B9083B02E01A68043B1AB977
:103A20009A4505F1FF35F8D3CBF81050404603B066
:103A3000BDE8F08F002003B0BDE8F08FFFFFFFFF6F
:103A40002DE9F04F016C9BB00446279D92469B46A2
:103A500049B1436C4B60012202FA03F38B6001F021
:103A600035FA00232364BBF1000FD94633DB002372
:103A70002B60A54B1A4609EA0303934214D0504623
:103A800059460022002302F00DFC804648B3269ED2
:103A9000289D01233360002D00F0C9809B482860D9
:103AA00001381BB0BDE8F08F269D42F20F732B60EA
:103AB000BAF1000F00F0A4809548289E002EF0D0A7
:103AC000C378002B00F0B58000F10803289D2B601F
:103AD0001BB0BDE8F08F01232BF000492B60CB46D3
:103AE000C7E719AA18AB8DE80C00204652465B4682
:103AF00001F072FC5FEA19550A9040F08A80189F25
:103B0000199D6FF482633D449D42C0F294821F333D
:103B100005F212425B1B09FA03F32AFA02F243EAA6
:103B20000200FEF7BFFA0126013DB846A1F1F87187
:103B300016960022774BFEF777F96DA3D3E90023A1
:103B400002F048F96CA3D3E90023FEF76FF90646AB
:103B500028460F46FEF7B6FA69A3D3E9002302F020
:103B600039F902460B4630463946FEF75FF90646FC
:103B70000F4602F0C9FB3946079000223046002369
:103B800002F09AFB002840F02882079E162E00F2D1
:103B90002182614B03EBC603D3E9000152465B4629
:103BA00002F0A8FB002800F04B82013E0796002699
:103BB0000E96C5EB0805013D069500F1258200250E
:103BC0000895079E002EC0F21682069D0D9635447C
:103BD000002606950C96249D092D2CD8052DC4BFD2
:103BE000043D2495249EA6F10203CCBF00250125A7
:103BF000032B22D8DFE813F0B7039E02C0039A0418
:103C0000464A434BC9F3130000280CBF1046184620
:103C100053E7CBF3130343F07F51CDF85880504660
:103C2000A5F2FF3541F44011DDF8608081E73C48A2
:103C300037E7C31C4AE7002524950025656429461B
:103C4000204601F01DF94FF0FF3901260990259516
:103C50002064CDF83C900B96199B002BC0F2D280CB
:103C6000079E0E2E00F3CE802B4B03EBC603D3E949
:103C70000001CDE9040125990029C0F28083DDE926
:103C800004235946504602F0CFF902F03DFB0546A9
:103C9000FEF718FADDE9042302F09CF802460B4611
:103CA00050465946FEF7C0F8099A05F13003B9F1BC
:103CB000010F06460F46137002F1010B64D000227B
:103CC000184B02F087F80022002306460F4602F048
:103CD000E9FA002840F08180DDF82480099D0394F2
:103CE000C844DDE904AB05F1020928E0AFF3008028
:103CF00061436F63A787D23FB3C8608B288AC63FF2
:103D0000FB799F501344D33F0000F07FE56A000029
:103D1000046B00000000F83F186B0000F86A000018
:103D2000E46A00000000244002F054F8002200235E
:103D300006460F4602F0B6FA002840F0C18352460C
:103D40005B463046394602F06FF902F0DDFA05466F
:103D5000FEF7B8F952465B4602F03CF802460B46C5
:103D600030463946FEF760F805F1300EC14509F8D6
:103D700001EC4C4606460F464FF00002A74B09F1F6
:103D80000109D1D1A346039C32463B463046394611
:103D9000FEF74CF806460F463246DDE904013B4685
:103DA00002F08AFA40B9DDE9040132463B4602F0EE
:103DB00079FA90B1EB0710D51BF8015C099A05E080
:103DC0009A4200F0288413F8015C9B46392D0BF1D0
:103DD000FF33F5D06A1CD2B21A7020460A9901F05E
:103DE00075F8079E269D731C289E00228BF80020E4
:103DF0002B60002E00F025830998C6F800B01BB098
:103E0000BDE8F08F0B9D002D00F00381249E012E54
:103E100040F3DC820C9E09F1FF37BE42C0F2898379
:103E2000F71BB9F1000FC0F28684089D4B46089E2F
:103E30001E440896069E20461E440121069601F067
:103E4000E9F8064665B10698002809DD0346089999
:103E5000AB42A8BF2B46C91AC01A0891ED1A0690AA
:103E60000C9A002A1DDD0B9B002B00F05883002FBD
:103E700011DD31463A46204601F074F906463146D6
:103E80000A9A204601F0D0F80A998046204601F0AF
:103E90001DF8CDF82880DDF830E0BEEB070240F0D9
:103EA0008F822046012101F0B5F880460D98002848
:103EB00005DD414620460D9A01F054F980462499CB
:103EC000012940F3C18200270D98002840F0AF82FD
:103ED0000120069B034413F01F0300F0A180C3F1EF
:103EE0002002042A40F3B5840899069AC3F11C0302
:103EF00019441A4408911D4406920899002905DDC9
:103F00000A99089A204601F07BF90A90069A002A3D
:103F100004DD4146204601F073F980460E9B002BDC
:103F200040F06A82B9F1000F40F3A6820B98002896
:103F300040F088800B9D0A9FDDF824B006E03946EA
:103F400020460A22002300F0CBFF074638464146B0
:103F5000FFF7DCFC30300BF805000135A945EEDC3D
:103F6000DDF824B00A978246B9F1010FACBFCB440B
:103F70000BF1010B00250A990122204601F040F9BE
:103F800041460A9001F09AF9002840F309831BF892
:103F9000012C099905E0994200F08B8213F8012C5D
:103FA0009B46392A0BF1FF33F5D001321A70414696
:103FB000204600F08BFF002E3FF40FAF2DB1B5422D
:103FC00003D02946204600F081FF3146204600F00C
:103FD0007DFF02E701260E96EBE50798FEF772F8E3
:103FE00032463B4602F05EF900287FF4CEAD079ED4
:103FF000013E0796C9E5079E089DAD1B08957542D1
:1040000000260C950D96E6E56D420026089506966D
:10401000D7E50C9F089D0B9E14E700BF00002440CD
:104020001C23DDF820E006989E441844CDF820E0DB
:104030001D44069061E7A748401B0AFA00F070E5AE
:104040000E90B6E5002D05DD31462A46204601F0EA
:10405000D7F80646002F40F0E8823746099D0998B8
:104060004D4408950AF001050B95DDF82890451C94
:104070000AE000F035FF394606460A2220460023B2
:1040800000F02EFF0746013541464846FFF73EFC4B
:1040900031468346484601F011F9414603903A46BD
:1040A000204601F02FF9C268691E03460BF1300A61
:1040B0000691002A40F0938119464846029301F088
:1040C000FDF8029B024619462046029200F0FEFED1
:1040D000029A2AB9249B1BB90B98002800F09183FF
:1040E000039B002BC0F2348205D1249818B90B9998
:1040F000002900F02D82002A00F3AB82DDF820E0D9
:1041000005F801AC7545AB4600F0B38249460A227A
:104110000023204600F0E4FEBE42814631462046A0
:104120004FF00A024FF00003A3D100F0D9FE06467B
:104130000746A8E700260B96079EDDF894E0B644F4
:104140000EF10109B9F1000FCDF83CE04E4640F305
:1041500050810021172E61640AD9012204235B00DB
:1041600003F11400B042114602F10102F7D9616473
:10417000204600F085FE0E2E099020643FF66CADBF
:10418000002D3FF469AD079D002DCDE912AB40F342
:104190001B82514B05F00F0203EBC2032D11D3E933
:1041A0000067EB0640F1CD814C4B50465946D3E9B0
:1041B000082301F039FFCDE9100105F00F054FF09C
:1041C00003088DB1DFF814A130463946EE0705D556
:1041D000DAE9002308F1010801F0FCFD6D100AF195
:1041E000080AF3D106460F46DDE9100132463B4688
:1041F00001F01AFF82468B460E9D45B15046594646
:104200000022374B02F058F8002840F0A9824046BF
:10421000FDF758FF52465B4601F0DCFD0022314BB2
:10422000FDF704FE0646A1F15077B9F1000F00F04A
:104230005A81079D1795C8460B9D002D00F02282DC
:10424000254B294903EBC80353E90223002001F061
:10425000EBFE32463B46FDF7E7FDCDE9100159463E
:10426000504602F051F80546FDF72CFF02460B467A
:1042700050465946FDF7D8FD3035099ECDE9040179
:10428000EDB23570DDE91001DDE9042306F1010B23
:1042900002F030F8002840F0A982DDE90423002074
:1042A0000F49FDF7C1FD02460B46DDE9100102F0A2
:1042B00021F8002840F0A082B8F1010F40F380817E
:1042C000B044CDF85090A246C146DDE90467DDE96F
:1042D000104519E0EEFBFFFF186B0000E06B0000DB
:1042E0000000F03F00001C400000E03F0020A84913
:1042F000FDF79AFD22462B4601F0DEFF002840F034
:104300007982CB4500F05981204629460022A14BF5
:1043100001F060FD00229F4B04460D4630463946B1
:1043200001F058FD0F46064601F0EEFF8046FDF70E
:10433000C9FE02460B4630463946FDF775FD08F1C9
:1043400030085FFA88F822462B460BF8018B0646A8
:104350000F4601F0B1FF32463B460028C6D0179EFB
:104360000796544639E500260B96259800283CDD33
:1043700006460F908146ECE601260B96F5E7B9F16B
:10438000000F3FF77CAC40F0C6800022824BDDE995
:10439000040101F01FFD52465B4601F0A1FFC84633
:1043A0004E4600287CD0259DDDF824B0ED430795CE
:1043B0004146204600F08AFD002E7FF406AE0CE553
:1043C0000A99204600F0CEFE0A906AE5169D002D5F
:1043D00000F0B78103F233430C9F089D27E50146A7
:1043E000204600F073FD01227AE6012625960F96FD
:1043F000B14600216164BBE60A98414600F05EFFC9
:104400000028BFF68FADDDF81CE00A990EF1FF3EE3
:1044100020460A220023CDF81CE000F061FD0A903E
:104420000B98002840F00782DDF83C907AE5D8F838
:10443000103008EB8303186900F09EFDC0F12000E6
:1044400047E50998FFF72DBBBAF1000F7FF43BADAC
:10445000CBF31303002B40F07B812BF000473F0D83
:104460003F05002F3FF430AD089A069B013201331F
:1044700008920693012727E5249902297FF756AD74
:10448000B9F1000F8FD141464B460522204600F07E
:1044900027FD804641460A9800F010FF002882DD83
:1044A000079D01350795099D31232B7005F1010BFF
:1044B0007EE7079809993123013007900B7076E564
:1044C000A346039C89E44046FDF7FCFD02460B46EB
:1044D0005046594601F07EFC0022304BFDF7A6FC09
:1044E0000646A1F150775046594600222A4BFDF767
:1044F0009BFC32463B4682468B4601F0FBFE002881
:1045000040F0BC80324607F100435046594601F066
:10451000D3FE002854D04FF00008464643E70A99DE
:104520000C9A204600F01EFE0A90BAE401260B9673
:1045300002E60C9D0D9E0C977B1B1E440D960027DA
:104540006FE4DDE912014FF00208CDE9100138E611
:10455000002ACDF82890D94611DD0A99012220467B
:1045600000F04EFE41460A9000F0A8FE002840F3FD
:104570005B81BAF1390F00F01A8109F1310A069B0B
:10458000354683F800A003F1010B3E460FE500BF5E
:104590000000F03F000024400000144000001C40D8
:1045A00003D11AF0010F7FF4F2AC5B469B46013B4E
:1045B0001BF8012C302AF9D0F9E4DDF8509054466C
:1045C000DDE912ABFFF748BB079E7542002D00F0F6
:1045D000C280A34B05F00F0203EBC203D3E9002313
:1045E000DDE9120101F0F6FB2D1182468B4600F049
:1045F0002D819C4E4FF00208EA0705D5D6E900232D
:1046000008F1010801F0E6FB6D1006F10806F3D190
:1046100082468B46F0E5079E099D30222A700136BE
:10462000312207961A70FFF7D8BB7168204600F058
:1046300027FC33699A1C0546920006F10C010C30E8
:10464000FDF7CEFD20462946012200F0D9FD0746A0
:1046500004E5BAF1390FCDF8289000F0A880069D46
:104660000AF101032B703546069E06F1010B3E460A
:104670009DE43546CDF828903E467CE44FF0000896
:1046800046460DE7764908F1FF3501EBC501324694
:104690003B46D1E90001109501F09CFBCDE91401E6
:1046A0005946504601F030FE0546FDF70BFD024627
:1046B0000B4650465946FDF7B7FBDDF824E0303590
:1046C000B8F1010F06460F468EF800500EF1010BAF
:1046D0001ED0099D6B1E03EB080A0022624B01F0FD
:1046E00079FB0F46064601F00FFE8046FDF7EAFC17
:1046F00008F1300802460B4630463946FDF794FB78
:1047000005F8018F5545E8D1109D06460F46AB448C
:104710000022564BDDE91401FDF788FB32463B468B
:1047200001F0CAFD00284DD0179E07961BF8015CCA
:10473000099AFFF74BBB089E0023C9EB0605FFF75C
:1047400076BB189B0C9F089DC3F13603FFF76FBB28
:104750005746FFF7B9BBDDE912AB4FF002084BE556
:10476000B9F1000F3FF4AFAE0F9E002E7FF728AFD8
:1047700000223D4B5046594601F02CFB824608F181
:1047800001008B46FDF79EFC02460B4650465946FB
:1047900001F020FB0022364BFDF748FB079DDDF8BA
:1047A0003C80013D0646A1F15077179544E535461A
:1047B000069B069E09993922327003F1010B3E4691
:1047C000FFF7EFBBDDE9142300202849FDF72CFBA0
:1047D00032463B4601F08EFD00283FF4F1AE5B46C9
:1047E0009B46013B1BF8012C302AF9D0179D0795F9
:1047F000FFF7F3BA45465446179E0796099AFFF706
:10480000E5BABAF1390FCDF82890D0D0039B3546E0
:10481000002B069EC8BF0BF1310A86F800A006F1F6
:10482000010B3E46FFF7C3BB7FF4A9AE1AF0010FA0
:104830003FF4A5AE9DE6314620460A220023DDF86E
:104840003C9000F04DFB0646FFF76CBB4FF00208B2
:10485000D2E43FF452ABC3F13C03FFF7E2BB00BF2D
:10486000186B0000E06B0000000024400000E03FF7
:1048700000001C40AFF3008038B5094D094C641BA3
:10488000A41018BF05EB840505D0013C55F8043D84
:104890009847002CF9D1BDE8384002F0C5B900BFF7
:1048A000000000000000000000487047DC88FF1F87
:1048B0002DE9F04F01F10B05162D83B0064627D9DF
:1048C00035F0070527D4A94225D8304600F0D4FAA0
:1048D000B5F5FC7F26D2C14F4FEAD50C07EBCC03D0
:1048E000DC689C4200F0D2816368E268A16823F032
:1048F0000303234430465D68CA6045F001059160BA
:104900005D6000F0BBFA0834204603B0BDE8F08FCC
:104910001025A942D9D900240C232046336003B0C6
:10492000BDE8F08F5FEA552C00F08A80BCF1040FDF
:1049300000F260814FEA951C0CF1380C4FEA4C01F3
:10494000A64F07EB8101CC68A14205D10CE0002BFA
:104950007ADAE468A14207D0626822F00302531BAE
:104960000F2BF4DD0CF1FF3C0CF1010C9B4B3C696F
:1049700003F1080E744500F07E81616821F00301A7
:104980004A1B0F2A00F36481002AC3F814E0C3F81D
:1049900010E06ADAB1F5007F80F03A81C90803EBD4
:1049A000C1004FEAA1085A688168A1604FF001096F
:1049B00009FA08F848EA0202E0605A608460CC60B4
:1049C0004FEAAC030120984090425BD8024206D1E6
:1049D0002CF0030C400002420CF1040CFAD007EB5F
:1049E000CC084446E146E3689C4207D145E1002AF1
:1049F00080F25681DB689C4200F03F81596821F0CB
:104A000003014A1B0F2AF2DD1C46D3F80CC054F8F0
:104A1000088F591945F0010942F00105C3F80490C7
:104A20003046C8F80CC0CCF8088079613961C1F80B
:104A30000CE0C1F808E04D608A5000F01FFA63E70F
:104A40007E214FF03F0C7BE72244E3685068A16869
:104A500040F00105CB6030469960556000F00EFAD9
:104A60000834204603B0BDE8F08F214430464B683F
:104A700043F001034B6000F001FA0834204603B014
:104A8000BDE8F08FBC68636823F00309A94504D32F
:104A9000C5EB09030F2B00F39180514B514A196864
:104AA0001368013305EB010A04EB090B00F0618187
:104AB0000AF5805A0AF10F0A2AF47F6A2AF00F0ACF
:104AC00030465146019200F00DFDB0F1FF3F8046A7
:104AD000019A00F00081834500F2FA80DFF810C1EE
:104AE000DCF80030C3455344CCF8003000F04A8174
:104AF00012683C4901321BBFCBEB080B5B44C1F889
:104B00000080CCF8003018F0070300F01381C3F1E7
:104B10000802C3F5805390440833C244CAF30B0A19
:104B2000CAEB030A51463046CDF804C000F0DAFC67
:104B3000431CDDF804C000F03581C8EB000252448C
:104B400042F00102DCF80030C7F808805344BC4250
:104B5000C8F80420CCF80030DFF894A015D0B9F1E3
:104B60000F0F40F2EA806168A9F10C0222F00702FF
:104B700001F0010EA118052042EA0E0E0F2AC4F81A
:104B800004E04860886000F21181174ABC6811682F
:104B90008B4288BF1360154A11688B4288BF13602F
:104BA000626822F003029542C5EB020301D80F2B85
:104BB00004DC304600F062F90024A5E6621943F0F7
:104BC000010345F0010565603046BA60536000F0AE
:104BD00055F90834204603B0BDE8F08F1489FF1F53
:104BE000D48EFF1F208DFF1FD08EFF1FCC8EFF1F86
:104BF000D88EFF1FBCF1140F61D9BCF1540F00F225
:104C00008F804FEA153C0CF16E0C4FEA4C0197E691
:104C10004B0A042B58D9142B00F2AE8003F15B022F
:104C2000500007EB8000DFF8BC818368834200F00E
:104C30008A805A6822F00302914202D29B6898420D
:104C4000F7D1D9687A68E160A3608C60DC60B7E670
:104C5000611942F0010745F0010565603046596170
:104C60001961C1F80CE0C1F808E04F608A500834BF
:104C700000F004F948E65A68A2E609F1010919F0C2
:104C8000030F04F108047FF4AEAE2DE004F1080335
:104C90006469A34208BF0CF1020C3FF467AE23E63F
:104CA00019441C464868DB6854F8082F40F0010599
:104CB0004D603046D3609A6000F0E0F824E60CF1D5
:104CC0005B0C4FEA4C013BE68A0938325000A8E7FA
:104CD000BC423FF403AFBC68626822F0030262E7A3
:104CE000D8F8008098457BD11CF0030FA8F1080389
:104CF0000CF1FF3CF4D17B6823EA00037B604000A9
:104D000098423FF6BFAE00283FF4BCAE0342CC460B
:104D10007FF465AE400003420CF1040CFAD05EE66D
:104D2000BCF5AA7F1AD84FEAD53C0CF1770C4FEAB4
:104D30004C0105E64FF48053EFE60123C8F8043038
:104D4000444600222FE791100120D8F8042000FAF1
:104D500001F10A43C8F80420194674E740F254539D
:104D60009C451BD84FEA954C0CF17C0C4FEA4C014A
:104D7000E6E50AF1100AA3E6542B1FD80A0B6E329F
:104D800050004EE7CBF30B0100297FF4B1AE0AEBE4
:104D90000901BA6841F001015160F6E6FC214FF0CB
:104DA0007E0CCDE501224FF0000ACBE604F10801AC
:104DB000304600F0FBFCDAF80030E6E6B3F5AA7FF7
:104DC00003D8CA0B773250002BE740F2545293427B
:104DD00003D88A0C7C32500023E7FC207E2220E797
:104DE0007B688CE71489FF1F830770B4C9B23FD07A
:104DF000541E2AB303788B4223D0431C04E0FCB139
:104E000004788C421DD0144613F0030F184604F1A9
:104E1000FF3203F10103F2D1032C14D8651E4CB309
:104E200003788B420DD0421C002302E004788C42B0
:104E300007D0AB42104603F1010302F10102F5D1A4
:104E4000002070BC704741EA0126034646EA064648
:104E50001846043302687240A2F1013525EA0202C5
:104E600012F0803FDAD1043C032C1846F0D8D5E785
:104E70001446D1E72046E4E7704700BF704700BF03
:104E8000C26C70B505460C464AB152F8240080B198
:104E9000016842F8241000220261C26070BD212224
:104EA000042100F005FCE86402460028EDD1002052
:104EB00070BD012101FA04F6721D2846920000F02F
:104EC000F7FB0028F3D044608660E4E731B1C36C9F
:104ED0004A6853F82200086043F82210704700BF68
:104EE0002DE9F047D1F8108082B08946824601F161
:104EF000140500242F68BEB23F0C02FB063602FBED
:104F000007F303EB16430134B6B206EB0346A045A4
:104F100045F8046B4FEA1343ECDC53B1D9F8082091
:104F200090450ADA09EB880108F101024B61C9F8E2
:104F30001020484602B0BDE8F087D9F8041001936C
:104F400001315046FFF79CFFD9F81020023209F1D9
:104F50000C01044692000C30FDF742F9DAF84C20BF
:104F6000D9F80410019B52F82100C9F8000042F85A
:104F70002190A146D6E700BF030C1B04B3B900047F
:104F8000102310F07F4F04BF0002083310F0704F61
:104F900004BF0001043310F0404F04BF800002330F
:104FA000002807DB420003D4202070470023E8E7F5
:104FB000581C704718467047036813F0070207D063
:104FC000D90720D49A0720D49B0803600220704799
:104FD00099B209B91B0C102213F0FF0F04BF1B0A72
:104FE0000832190704BF1B090432990704BF9B0844
:104FF0000232D90704D45B0801D120207047013266
:10500000036010467047002070475B080360012072
:10501000704700BF10B50C460121FFF731FF012298
:105020004461026110BD00BF2DE9F04F0D69D2F857
:1050300010904D4585B00C46924604DA2A465446F7
:105040004D468A469146A368616805EB09079F4271
:10505000C8BF0131FFF714FF00F1140606EB870803
:105060004645019005D23346002043F8040B98458D
:10507000FBD80AF1140C0CEB89091434CC450094CC
:1050800004EB85055BD2CDF808800397C8465CF831
:10509000043B9CB224B3009A33464FF0000900E071
:1050A0000B4652F8047B19681FFA87FB1FFA81FA36
:1050B000380C090C04FB0BA7B94404FB001000EBEF
:1050C000194019461FFA89F949EA004795424FEA03
:1050D000104941F8047BE3D8C3F804905CF8043C21
:1050E0005FEA134924D0D6F800A0009B5046314611
:1050F0004FF0000B00E011461A88000C09FB02007B
:1051000083441FFA8AFA0A464AEA0B4042F8040B23
:1051100053F8047B48684FEA174A84B209FB0A4AED
:105120000AEB1B4A9D424FEA1A4BE4D8C1F804A08F
:10513000E04506F10406AAD8DDF80880039F002F99
:105140000ADD58F8043CA8F104081BB104E058F843
:10515000043D0BB9013FFAD1019B18461F6105B010
:10516000BDE8F08F12F003032DE9F0411446074625
:105170000E462CD1A4101CD0BD6C002D30D04FF0A9
:10518000000804E0641014D02868A8B10546E307BD
:10519000F8D5384631462A46FFF746FFAEB1726869
:1051A000FB6C641053F82210316043F8226006460D
:1051B000EAD13046BDE8F081384629462A46FFF755
:1051C00033FF2860C0F80080E0E70646DAE75D1E9E
:1051D0000A4A002352F82520FFF782FE0646C9E757
:1051E00001213846FFF74CFE40F2712101220023D5
:1051F000416102610546B8640360C0E7086C0000C5
:105200002DE9F84F93460A698B684FEA6B1A0AEB4F
:10521000020909F101069E420F468046496804DDF5
:105220005B009E4201F10101FADC4046FFF728FED7
:10523000BAF1000F00F1140409DD00231A462546D7
:105240000133534545F8042BFAD104EB83043A6942
:1052500007F114031BF01F0B03EB820C21D0CBF1E1
:10526000200A002200E02C461968254601FA0BF1BD
:105270000A4345F8042B53F8042B634522FA0AF23B
:10528000F1D362600AB109F10206D8F84C307A68AD
:10529000013E53F822100661396043F82270BDE8E0
:1052A000F88F53F8042B44F8042B9C45EDD953F8A0
:1052B000042B44F8042B9C45F3D8E6E702690B69FC
:1052C000D21A10B415D19B00143014311944034480
:1052D00001E0984211D253F8042D51F8044DA24236
:1052E000F7D0944294BF01204FF0FF305DF8044B9B
:1052F000704710465DF8044B704700205DF8044B82
:10530000704700BF2DE9F0470D4604461146284678
:105310001646FFF7D3FF071E55D04EDB4FF00008AF
:1053200069682046FFF7ACFD2F693269C0F80C8030
:105330001435143600F1140305EB870C06EB8208D4
:10534000002156F8042B55F8044B1FFA82F911FA84
:1053500084FA110CC1EB1441C9EB0A0201EB2241A2
:1053600092B242EA0142B04543F8042B4FEA214190
:105370002C46E6D8AC45984615D954F8046B11FA7A
:1053800086F1360C06EB214689B241EA0642A44575
:1053900043F8042B4FEA2641EFD8EB43634423F054
:1053A000030304334344043B22B953F8042D013F63
:1053B000002AFAD00761BDE8F0872B464FF00108BC
:1053C00035461E46ACE720463946FFF759FD012316
:1053D00047610361BDE8F0872DE9F04383B0012107
:1053E0001D46C3F30A5614460A9FFFF749FDC5F34D
:1053F000130380460EB143F48013019324B302A833
:1054000040F8084D6846FFF7D7FD002835D19DE8E4
:105410000C00C8F81420002B0CBF01240224C8F88B
:105420001830C8F81040DEB908EB8403A0F232400F
:1054300038601869FFF7A0FD0B9BC0EB44101860A3
:10544000404603B0BDE8F08301A8FFF7B5FD012495
:10545000019BC8F814302030C8F81040002EE3D06B
:10546000A6F2334909EB00033B600B9BC0F135000A
:105470001860404603B0BDE8F0839DE80C00C0F121
:10548000200103FA01F10A43C3400193C8F8142034
:10549000C1E700BF31F0004310B408D00F4AA3F5B4
:1054A000801494420AD804205DF8044B7047002809
:1054B0000CBF022003205DF8044B7047B3F5801F3A
:1054C00001D20320F7E7064A934201D00020F2E719
:1054D000D0F1010038BF0020EDE700BFFFFFDF7F04
:1054E0000000F07F38B5074C0023054608462360CE
:1054F000FBF7C5F9431C00D038BD2368002BFBD057
:105500002B6038BD108FFF1F2DE9F04F946816688F
:1055100083B0924680460D46002C6FD04FF0000BB2
:1055200008688B685C46002C43D09C421F4645D3DC
:10553000AB8913F4906F44D06F69296907EB470773
:1055400007EBD777C1EB0009621C7F104A449742F2
:1055500034BF17463A465B0535D511464046FFF73E
:10556000A7F9002839D0296901904A46FCF738FE8E
:10557000AA89019B22F4906242F08002AA81C9EBC1
:10558000070203EB09006F612B612860AA602746C0
:10559000A1464A46594600F0D7F9DAF80820AB6828
:1055A0002868DB1B4844141BAB602860CAF808401D
:1055B00024B3D6F800B074680836B4E72746A1468D
:1055C000E7E7B946E5E7404600F01EFA0346002843
:1055D000D5D14046296900F0E9F8AA890C23C8F81A
:1055E000003042F0400200234FF0FF30AA81CAF899
:1055F0000830CAF8043003B0BDE8F08F2046CAF87E
:10560000044003B0BDE8F08FF0B5274C2668D6F80B
:10561000484185B00746002C41D065681F2D1EDD2E
:10562000224818B94FF0FF3005B0F0BD4FF4C870F4
:10563000039102920193AFF300800399029A019BB8
:1056400004460028EED0D6F848512560002060605E
:105650000546C6F84841C4F88801C4F88C013FB932
:10566000AB1C00200135656044F8231005B0F0BD87
:1056700004EB85004FF0010CC0F88820D4F8886155
:105680000CFA05F21643022FC4F88861C0F80831FD
:10569000E6D1D4F88C311A43C4F88C21E0E706F542
:1056A000A674C6F84841B8E7906A00000000000000
:1056B00010B502FB01F1FFF7FBF8044668B150F8A2
:1056C000042C22F00302043A242A18D8132A06D8FC
:1056D000034600221A605A609A60204610BD0023DB
:1056E0001B2A036043600FD9242A8360C36005BF6F
:1056F0000361436100F1100300F11803E9E70021A1
:10570000FCF708FE204610BD00F10803E1E700BFEA
:10571000F8B5234D0F460446FFF7AEFBAB685E6855
:1057200026F00306F11B01F6EF7121F47F6121F0F1
:105730000F01A1F58057B7F5805F07DB20460021F8
:10574000FFF7D0FEAB683344984204D02046FFF701
:1057500095FB0020F8BD20467942FFF7C3FE0130DB
:105760000DD0104BAA681968F61B46F001062046BA
:10577000C91B56601960FFF781FB0120F8BD204668
:105780000021FFF7AFFEAB68C21A0F2ADEDD064D1F
:1057900004492D6842F00102401B5A600860D5E7B9
:1057A0001489FF1FD88EFF1F208DFF1F2DE9F041A8
:1057B0000D460646002955D0FFF75EFB55F8041C40
:1057C000DFF874C121F00103A5F10804E218DCF848
:1057D00008005768904227F0030769D011F00101D3
:1057E000576032D00021D0194068C00706D43B442E
:1057F000906800294ED0D268C260906043F00102E8
:105800006260E350E1B9B3F5007F2DD35A0A042A50
:105810006AD89809383041000CEB810C4649DCF815
:105820000820624566D0516821F003018B4202D204
:1058300092689445F7D1D368E360A2609C60D4601D
:105840003046BDE8F041FFF719BB55F8085C641B12
:105850000CF10808A06840452B4443D0E568C560BA
:10586000A860C0E7BDE8F081DB080CEBC3020125AE
:10587000DCF804009168A1609B1005FA03F318435B
:10588000E260CCF8040094603046CC60BDE8F041A2
:10589000FFF7F4BA294DA842ADD143F00102CCF88C
:1058A0001440CCF81040E060A0606260E350C7E7AD
:1058B0001F44CB0707D455F8083CE41A1F44A268DC
:1058C000E368D3609A601E4B1B6847F001029F4259
:1058D0006260CCF80840B3D31A4B30461968FFF722
:1058E00017FFADE701217EE7142A0CD802F15B0017
:1058F000410091E74B688010012505FA00F0034351
:105900004B60134698E7542A03D8180B6E304100B9
:1059100082E7B2F5AA7F03D8D80B773041007BE746
:1059200040F254518A4203D8980C7C30410073E70E
:10593000FC217E2070E700BF1489FF1F1C89FF1F18
:105940001C8DFF1FD48EFF1F8842F0B410D98C1815
:10595000A0420DD28518531E42B121462A4611F8A5
:10596000014D02F8014D013B5C1CF8D1F0BC7047C1
:105970000F2A3FD940EA01039B073FD1A2F110074C
:105980003F0900EB071610360C46034625681D60DC
:1059900065685D60A5689D60E568DD601033B342B1
:1059A00004F11004F2D17B1C02F00F0C1B01BCF1BE
:1059B000030F1944034423D90E461D466446043C94
:1059C00056F8047B45F8047B032CF8D8ACF10404AA
:1059D00024F00304043402F0030223442144002A87
:1059E000C4D01A4411F8014B03F8014B9342F9D18A
:1059F000F0BC70470346002AF3D1B7E70346F0E74F
:105A00006246002AEDD1B1E72DE9F04F0C4683B094
:105A100090468146002900F0E280FFF72DFA08F158
:105A20000B0654F8043C162E23F00305A4F10807D6
:105A30004BD810210E46B0454CD88D4278DADFF8AD
:105A400090B3DBF808E07819864500F0CE80426814
:105A500022F0010C8444DCF804C01CF0010F7AD061
:105A600000221046DB0700F1928054F8083CC3EB9B
:105A7000070ADAF8043023F003032B4488B3704597
:105A800000F0ED8002EB030E8E452ADBC3688268CE
:105A90005746D3609A6057F8081FDAF80C30CB608D
:105AA0002A1F242A996000F22681132A40F2B3802B
:105AB0002368CAF808306368CAF80C301B2A00F261
:105AC000308108340AF11003A6E026F00706002E04
:105AD0003146B0DA0C230020C9F8003003B0BDE82D
